:020000040800F2
:100000000004002047010008A1020008A302000824
:10001000A7020008AB020008AF02000800000000C1
:10002000000000000000000000000000B302000813
:10003000B502000800000000B7020008B90200087D
:10004000F7A00008670100086701000827090008F9
:1000500067010008670100086701000867010008E0
:1000600067010008670100086701000867010008D0
:1000700067010008670100086701000867010008C0
:1000800067010008670100086701000867010008B0
:1000900067010008670100086701000867010008A0
:1000A0006701000867010008670100086701000890
:1000B000BD050008670100080D0900086701000878
:1000C0006701000867010008670100086701000870
:1000D00067010008BB020008C702000837030008D8
:1000E0006701000867010008670100086701000850
:1000F0006701000867010008670100086701000840
:10010000670100086701000867010008670100082F
:100110006D030008B10500086701000867010008C9
:10012000670100086701000867010008670100080F
:10013000DFF80CD00DF01EFA0048004775010008EA
:10014000703D0020704708488047084981F30888BF
:1001500007480047FEE7FEE7FEE7FEE7FEE7FEE7AB
:10016000FEE7FEE7FEE7FEE745010008703D0020E0
:10017000310100080CF0A3FF482000F0F9FE00F068
:1001800021FC08F084FD01F045FD01F00AFD01F0BD
:1001900044F900F0CBFE00F086FE01F08FFD08F080
:1001A000FFFE04F0BEFB04F00CFF03F0A8FE01F01C
:1001B000A5FC00F0C7FF08F0BEFF09F071FD09F0D3
:1001C00043FF03F0B2FE01F06CFF1B49086001F031
:1001D0003DFF1A490860184802680846016818A0DF
:1001E0000DF092FA154800682249884203D122A0F6
:1001F0000DF08AFA02E025A00DF086FA41F288316E
:100200000B2000F01AFC41F288310D2000F015FCA3
:1002100011E000F060FE09F005FC2048007850B1C4
:100220004FF000001D49087004F098FC41F288313D
:100230000D2000F002FCECE7040000200800002084
:10024000466C617368494420697320307825582CC6
:1002500020204D616E75666163747572657220440D
:100260006576696365204944206973203078255894
:100270000D0A00001530EF00666C6173682057327C
:1002800035583136204F4B210D0A00005732355872
:100290003136204552524F52210D0A00F5310020CF
:1002A000704700BFFEE700BFFEE700BFFEE700BFEC
:1002B000FEE7704770477047704710B52021FE4831
:1002C0000AF098FC10BD10B52021FC480AF092FC01
:1002D00080B3FB48B0F80100802804DD4FF08000B7
:1002E000F749A1F80100F5480AF02AFCC1B2F44828
:1002F000B0F8012000F103008154F148B0F801008A
:1003000000F10100EE49A1F801000846B0F8010033
:10031000A0F1010001F10301085C0D2806D0C81E00
:10032000B0F80100401E085C0A2803D14FF001001C
:10033000E349087010BD10B52021E2480AF05AFCCC
:1003400098B1E0480AF0FCFBDF49E04A1278885493
:10035000DE48007800F10100DC490870DA480078D6
:10036000AA2802D04FF00000087010BD10B520215F
:10037000D7480AF03FFC00287ED0D5480AF0E0FBC1
:10038000D449D54A12788854D348007800F1010046
:10039000D1490870CF480078FE2808D04FF00000FF
:1003A00008704FF40041CD4809F0D1FF10BDC94895
:1003B000407B0F30C849097888425DDCC548C07869
:1003C000682806D1C348407B0F30C249085C162814
:1003D00000D0EBE7BF484079BE49897940EA012067
:1003E000BC49C97940EA0140BA49097A40EA01604A
:1003F000BB490860BB48D0F816000968884204D1A0
:100400004FF00100B849087024E0B648D0F81A004F
:10041000B3490968884204D14FF00200B24908701C
:1004200018E0B048D0F81E00AD490968884204D1F0
:100430004FF00300AC4908700CE0AA48D0F8220045
:10044000A7490968884204D14FF00400A649087002
:1004500000E0ABE79F48007B81287BD19D49487C29
:1004600009F086FBA14908709A49887C09F080FB55
:100470009E494870974900E098E0C87C09F078FBF5
:100480009A4988709349087D09F072FB9749C870B2
:100490009548007801281BD108460078497801EB7F
:1004A000C10202EB011100EB81019048807840F21B
:1004B000712200FB02F001EB00118C48C07843F67A
:1004C000095200FB02F001EB80108949086062E0EC
:1004D0008548007802281CD18448007883494978EF
:1004E00001EBC10202EB011100EB81017F48807832
:1004F00040F2712200FB02F001EB00117B48C07852
:1005000043F6095200FB02F001EB801079490860C4
:1005100041E07548007803281DD17448007873497C
:10052000497801EBC10202EB011100EB81016F4838
:10053000807840F2712200FB02F001EB00116B4861
:10054000C07843F6095200FB02F001EB80106A49C3
:10055000086020E020E06448007804281BD163484C
:1005600000786249497801EBC10202EB011100EB0E
:1005700081015E48807840F2712200FB02F001EBBD
:1005800000115A48C07843F6095200FB02F001EB13
:1005900080105A49086000BF00BF4FF000004E496C
:1005A00008704FF400414D4809F0D1FE00BFFDE650
:1005B00010B5202152480AF01DFB10BD10B50121D5
:1005C00088070BF009FA002874D0012188070BF086
:1005D00017FA00F0EDFB4B48006828B14948006865
:1005E000A0F10100474908604748006828B1464823
:1005F0000068A0F10100444908604448006828B13F
:1006000042480068A0F10100404908604048006885
:1006100028B13F480068A0F101003D4908603D480D
:10062000006828B13B480068A0F101003949086022
:100630003948006828B138480068A0F101003649FF
:1006400008603648006828B134480068A0F101000D
:10065000324908603248006828B131480068A0F18A
:1006600001002F4908602F48006828B12D48006814
:10067000A0F101002B4908602B48006828B12A48E6
:100680000068A0F10100284908602848006828B1E6
:1006900026480068A0F10100244908602448006849
:1006A00028B123480068A0F10100214908602148D1
:1006B000006841E029E100000038014000440040AA
:1006C0008C00002000480040583900201B320020D8
:1006D000004C0040A63A00202232002000080140D1
:1006E00014000020043900200D0000200E0000201E
:1006F000083200200C32002010320020143200207A
:1007000000500040280000202C0000203000002075
:1007100034000020380000203C0000204000002071
:1007200044000020480000204C0000205000002021
:10073000540000205800002028B185480068A0F12E
:100740000100834908608348006828B18148006837
:10075000A0F101007F4908607F480078012809D195
:100760007E48006830B94FF000007B49087007F000
:10077000BFFE8EE07A48007801280BD179480068E6
:1007800040B94FF00000764908704FF0010007F0C3
:10079000AFFE7EE07448007801280BD173480068F2
:1007A00040B94FF00000704908704FF0020007F0A8
:1007B0009FFE6EE06E48007801280BD16D480068FE
:1007C00040B94FF000006A4908704FF0030007F08D
:1007D0008FFE5EE06848007801280BD1674800680A
:1007E00040B94FF00000644908704FF0040007F072
:1007F0007FFE4EE06248007801280BD16148006816
:1008000040B94FF000005E4908704FF0050007F056
:100810006FFE3EE05C48007801280BD15B48006821
:1008200040B94FF00000584908704FF0060007F03B
:100830005FFE2EE05648007801280BD1554800682D
:1008400040B94FF00000524908704FF0070007F020
:100850004FFE1EE05048007801280BD14F48006839
:1008600040B94FF000004C4908704FF0080007F005
:100870003FFE0EE04A48007801280AD14948006846
:1008800038B94FF00000464908704FF0090007F0F2
:100890002FFE4548007801280AD14448006838B93D
:1008A0004FF00000404908704FF00A0007F020FEAA
:1008B0003F48007801280AD13E48006838B94FF017
:1008C0000000394908704FF00B0007F011FE3A485C
:1008D000007801280AD11E48006838B94FF000009E
:1008E000314908704FF00C0007F002FE33480078E1
:1008F00001280AD11748006838B94FF000002A498A
:1009000008704FF00D0007F0F3FD10BD10B5012188
:100910002B480BF061F808B103F037FB01212848A0
:100920000BF06EF810BD10B501200BF0BCFC08B147
:1009300008F031FA02200BF0B6FC10B102200BF0E7
:10094000C5FC05200BF0C2FC0BF080FC10BD0000C4
:10095000580000205C000020180000202800002023
:10096000190000202C0000201A0000203000002078
:100970001B000020340000201C0000203800002054
:100980001D0000203C0000201E0000204000002030
:100990001F0000204400002020000020480000200C
:1009A000210000204C0000202200002050000020E8
:1009B00023000020540000202400002025000020F7
:1009C000000800404FF000008E4908608E49086022
:1009D0008E4908608E4908608E4908608E4908601B
:1009E0008E4908608E4908608E4908608E4908600B
:1009F0008E4908608E4908608E4908608E490860FB
:100A00008E4908708E4908708E4908708E490870AA
:100A10008E4908708E4908708E4908708E4908709A
:100A20008E4908708E4908708E4908708E4908708A
:100A30008E4908708E490870704702460E2A6AD2A5
:100A4000DFE802F0070E151C232A31383F464D54CB
:100A50005B624FF00100794B18706A4801605BE0FF
:100A60004FF00100764B18706748016054E04FF07A
:100A70000100744B1870654801604DE04FF00100B3
:100A8000714B18706248016046E04FF001006F4BF7
:100A90001870604801603FE04FF001006C4B187027
:100AA0005D48016038E04FF001006A4B18705B4808
:100AB000016031E04FF00100674B18705848016049
:100AC0002AE04FF00100654B18705648016023E0A2
:100AD0004FF00100624B1870534801601CE04FF06A
:100AE0000100604B18705148016015E04FF00100A3
:100AF0005D4B18704E4801600EE04FF001005B4BFB
:100B000018704C48016007E04FF00100584B187016
:100B10004948016000E000BF00BF00207047014667
:100B20000E296AD2DFE801F0070E151C232A31389E
:100B30003F464D545B624FF00000404A1070314A0E
:100B400010605BE04FF000003D4A10702E4A1060CC
:100B500054E04FF000003B4A10702C4A10604DE00A
:100B60004FF00000384A1070294A106046E04FF0FC
:100B70000000364A1070274A10603FE04FF0000036
:100B8000334A1070244A106038E04FF00000314AB8
:100B90001070224A106031E04FF000002E4A1070B1
:100BA0001F4A10602AE04FF000002C4A10701D4AC6
:100BB000106023E04FF00000294A10701A4A1060BC
:100BC0001CE04FF00000274A1070184A106015E032
:100BD0004FF00000244A1070154A10600EE04FF0EC
:100BE0000000224A1070134A106007E04FF0000026
:100BF0001F4A1070104A106000E000BF00BF0020C4
:100C000070470000280000202C0000203000002049
:100C100034000020380000203C000020400000206C
:100C200044000020480000204C000020500000201C
:100C300054000020580000205C0000201800002014
:100C4000190000201A0000201B0000201C000020BA
:100C50001D0000201E0000201F000020200000209A
:100C6000210000202200002023000020240000207A
:100C70002500002010B502219E4809F048FB0128FC
:100C800001D1002010BD0120FCE710B504219948D6
:100C900009F03DFB012801D1002010BD0120FCE737
:100CA00010B50821934809F032FB012801D100203A
:100CB00010BD0120FCE710B510218E4809F027FB7C
:100CC000012801D1002010BD0120FCE710B5202132
:100CD000884809F01CFB012801D1002010BD01202B
:100CE000FCE78549497D844A50541146497D491C99
:100CF000C9B25175142902DB4FF0000151757047DC
:100D00007D48007D7C4A527D904201D10020704791
:100D10007948007D784A115C1046007D401CC0B2C5
:100D20001075142802DB4FF0000010750846EEE73E
:100D300010B504462068804728B32079617988423D
:100D400002DA6079207132E02079617949008842C5
:100D500004DA207900F10100207128E0A079F8B9C7
:100D60004FF00100A071E079002820DD6421062009
:100D7000FFF763FE4FF48071604809F0EAFAE0790A
:100D8000FFF7AFFF13E020796179884202DD6079D7
:100D900020710CE0207920B12079A0F101002071B0
:100DA00005E0A079012802D14FF00000A07110BD2C
:100DB00010B55348FFF7BCFF5248FFF7B9FF524840
:100DC000FFF7B6FF5148FFF7B3FF5148FFF7B0FFF9
:100DD00010BD4FF000004849087548754D48484916
:100DE00008604FF032004871487900EBD0714FEA4B
:100DF0006101434A11714FF00000114688714FF0B4
:100E00000500C8714448424908604FF032004871FB
:100E1000487900EBD0714FEA61013D4A11714FF002
:100E20000000114688714FF00400C8713B483549F5
:100E300008604FF032004871487900EBD0714FEAFA
:100E40006101304A11714FF00000114688714FF076
:100E50000200C87132482D4908604FF032004871D5
:100E6000487900EBD0714FEA6101284A11714FF0C7
:100E70000000114688714FF00300C87129482249CB
:100E800008604FF032004871487900EBD0714FEAAA
:100E900061011D4A11714FF00000114688714FF039
:100EA0000100C871704708B50121092009F07DFCD7
:100EB00001211D4809F073FA4FF03E00ADF8000023
:100EC0004FF048008DF8030069460A4809F083F99D
:100ED000FFF77FFF08BD10B5FFF712FF0446052C92
:100EE00000DD10BD002C02DD204607F06CFA00BFCB
:100EF000F7E70000000C01404432002000080140E8
:100F00006000002078000020800000207000002099
:100F100068000020750C00088B0C0008B70C000856
:100F2000A10C0008CD0C00080002300008B501211A
:100F3000082009F03AFC4FF46040ADF800004FF093
:100F400010008DF803004FF003008DF80200694691
:100F5000064809F040F94FF46041044809F0F7F9F8
:100F60004FF46041014809F0F4F908BD000C01405C
:100F70004FF0E021096921F004014FF0E0221161F6
:100F80004FEAE07200EB52724FEAE2022A4B1A700B
:100F9000194609784FF47A7201FB02F1274A118051
:100FA00070470146254A128801FB02F24FF0E02308
:100FB0005A614FF000029A614FF001021A6100BFBE
:100FC0004FF0E022106910F0010F02D010F4803FC2
:100FD000F6D04FF000024FF0E0231A619A6170479B
:100FE0000146154A127801FB02F24FF0E0235A61E4
:100FF0004FF000029A614FF001021A6100BF4FF0FA
:10100000E022106910F0010F02D010F4803FF6D0FA
:101010004FF000024FF0E0231A619A6170474FF0E1
:10102000000101E001F1010100EBC00202EB00123E
:10103000B1EB820FF6D37047880000208A000020B1
:1010400008B54FF4A0600AF0DFFC4FF01C008DF8EB
:1010500000004FF001008DF801004FF003008DF803
:1010600002004FF001008DF8030068460AF0D2FC40
:1010700008BD0EB50121084609F0A6FB4FF08040DF
:1010800009F00EFE4FF47A70ADF804004FF04700FF
:10109000ADF800004FF00000ADF80600ADF802001A
:1010A00069464FF0804009F067FE012188070AF089
:1010B0008FFC0122114690070AF053F9012188079D
:1010C0000AF033F90EBD08B54FF4A0600AF09CFC9D
:1010D0004FF01E008DF800004FF002008DF8010067
:1010E0008DF802004FF001008DF8030068460AF009
:1010F00091FC08BD0EB50121042009F065FB1648DE
:1011000009F0CEFD41F28830ADF8040041F61F40F1
:10111000ADF800004FF00000ADF80600ADF8020099
:1011200069460D4809F028FE01210B480AF050FCE1
:101130000122114608480AF014F9012106480AF074
:10114000F4F80EBD10B5FFF794FFFFF7D3FFFFF7DC
:1011500077FFFFF7B8FF10BD0008004008B5012178
:10116000042009F022FB4FF4C050ADF800004FF00E
:1011700010008DF803004FF003008DF8020069465F
:10118000D74809F028F808BD08B50121042009F066
:101190000CFB4FF4C050ADF800004FF048008DF844
:1011A00003006946CE4809F016F808BD10B5FFF7F0
:1011B000D5FF4FF4C051CA4809F0CBF840F2EE20F9
:1011C000FFF70EFF4FF4C051C54809F0C0F80F20DB
:1011D000FFF706FF10BD70B505464FF00004FFF79E
:1011E000D3FF15B1012D4ED126E006E004F1010038
:1011F000C4B24FF00100FFF7F3FE4FF40061B848AE
:1012000009F085F808B1C82CF0DBC82C01DB0120FF
:1012100070BD4FF0000406E004F10100C4B24FF0CD
:101220000100FFF7DDFE4FF40061AD4809F06FF8F3
:1012300008B9F02CF0DB26E006E004F10100C4B2AE
:101240004FF00100FFF7CCFE4FF48051A44809F0A5
:101250005EF808B1C82CF0DBC82C01DB0120D7E711
:101260004FF0000406E004F10100C4B24FF00100A9
:10127000FFF7B6FE4FF48051994809F048F808B9D5
:10128000F02CF0DB00BF00BFF02C01DB0120BFE73A
:101290000020BDE710B54FF00004FFF775FF06E032
:1012A00004F10100C4B24FF00100FFF799FE4FF4C2
:1012B00080518B4809F02BF808B1C82CF0DBC82C02
:1012C00001DB012010BD4FF0000406E004F1010035
:1012D000C4B24FF00100FFF783FE4FF48051804805
:1012E00009F015F808B9F02CF0DBF02C01DB012037
:1012F000E8E70020E6E770B50546FFF72FFF4FF45B
:10130000C051774809F025F80220FFF769FE4FF435
:10131000C051734809F01BF8FFF736FF0C20FFF7A8
:101320005FFE15B1012D18D10BE04FF400616C4840
:1013300008F0EDFF10B14FF0010401E04FF00004A0
:101340000BE04FF48051664808F0E1FF10B14FF018
:10135000010401E04FF0000400BF00BF3220FFF79E
:101360003FFE204670BD2DE9F04107464FF00006D4
:101370004FF001050BE03846FFF7BDFF04464FEA8A
:10138000C41040EA6600C6B205F10100C5B2082DDE
:10139000F1DD3046BDE8F08170B50446FFF7DEFEB2
:1013A0004FF0010528E004F001064FEA640486B11D
:1013B0004FF4C0514A4808F0CCFF0220FFF710FE5E
:1013C0004FF4C051464808F0C2FF3C20FFF708FE2A
:1013D0000FE04FF4C051424808F0BBFF3C20FFF73C
:1013E000FFFD4FF4C0513E4808F0B1FF0220FFF767
:1013F000F7FD05F10100C5B2082DD4DD70BD10B5B3
:101400000446FFF7D3FE2046FFF7E5FECC20FFF7AA
:10141000C3FF4420FFF7C0FF10BD08B50121042021
:1014200009F0C3F901212F4808F0B9FF4FF4C0506B
:10143000ADF800004FF010008DF803006946284811
:1014400008F0C9FE08BD2DE9F14F82B00298FFF700
:10145000D6FFFFF7ABFE0298FFF7BDFECC20FFF7EB
:101460009BFFBE20FFF798FF0298FFF77CFF8346A3
:101470000298FFF778FF8046B8F1070F0ADD6FEAA0
:10148000080000F0FF086FEA0B0000F0FF0B4FF0C0
:10149000000A01E04FF0010AC1464FEA09200FFAA5
:1014A00080F909EB0B000FFA80F948460BF015FFA5
:1014B00001900BF03AFF064600220B4B0BF09DFE0D
:1014C00004460BF013FF0FFA80F9BAF1000F02D0B7
:1014D0004846BDE8FE8FC9F1000000B2F9E7000000
:1014E00000080140000230000000E43F08B54FF45E
:1014F00080600AF089FA4FF025008DF800004FF067
:1015000000008DF802004FF001008DF803006846DE
:101510000AF080FA4FF026008DF800004FF001002D
:101520008DF802008DF8030068460AF073FA4FF058
:1015300027008DF800004FF002008DF802004FF0F8
:1015400001008DF8030068460AF064FA4FF0340099
:101550008DF800004FF004008DF802004FF00100FC
:101560008DF8030068460AF055FA4FF035008DF803
:1015700000004FF005008DF802004FF001008DF8DB
:10158000030068460AF046FA08BD00B585B001219F
:1015900044F2040009F009F94FF40070ADF81000AE
:1015A0004FF018008DF813004FF003008DF8120073
:1015B00004A9F84808F00FFE4FF48060ADF8100061
:1015C0004FF004008DF8130004A9F24808F003FE60
:1015D0004FF4E13000904FF00000ADF80400ADF89A
:1015E0000600ADF80800ADF80C004FF00C00ADF8A7
:1015F0000A006946E84809F099F9012240F22551AC
:10160000E54809F028FA01222821E34809F023FAE5
:101610004021E14809F0FAFA0121DF4809F00EFA09
:1016200005B000BD00B585B00121480409F0CCF833
:101630000121042009F0B9F84FF00400ADF81000C2
:101640004FF018008DF813004FF003008DF81200D2
:1016500004A9D04808F0BFFD4FF00800ADF8100015
:101660004FF004008DF8130004A9CA4808F0B3FD38
:101670004FF4165000904FF00000ADF80400ADF8A4
:101680000600ADF80800ADF80C004FF00C00ADF806
:101690000A006946C14809F049F9012240F2255182
:1016A000BE4809F0D8F901222821BC4809F0D3F935
:1016B0004021BA4809F0AAFA0121B84809F0BEF958
:1016C00005B000BD00B585B00121880409F07CF8A3
:1016D0000121082009F069F84FF48060ADF810008E
:1016E0004FF018008DF813004FF003008DF8120032
:1016F00004A9AB4808F06FFD4FF40060ADF810008E
:101700004FF004008DF8130004A9A54808F063FD0C
:101710004FF48050ADF810004FF010008DF813001A
:101720004FF003008DF8120004A99D4808F053FD06
:101730004FF4965000904FF00000ADF80400ADF863
:101740000600ADF80800ADF80C004FF00C00ADF845
:101750000A006946934809F0E9F8012240F2255150
:10176000904809F078F901218E4809F067F9402185
:101770008C4809F04BFA05B000BD00B585B00121D9
:10178000C80409F021F80121102009F00EF84FF4E7
:101790008060ADF810004FF018008DF813004FF086
:1017A00003008DF8120004A97F4808F014FD4FF4DF
:1017B0000060ADF810004FF004008DF8130004A98C
:1017C000794808F008FD4FF40050ADF810004FF0D4
:1017D00010008DF813004FF002008DF8120004A9DC
:1017E000714808F0F8FC4FF4966000904FF000004C
:1017F000ADF80400ADF80600ADF80800ADF80C0037
:101800004FF00C00ADF80A006946684809F08EF800
:10181000012240F22551654809F01DF90121634874
:1018200009F00CF94021614809F0F0F905B000BD5C
:1018300000B585B00121080508F0C6FF0121302060
:1018400008F0B3FF4FF48050ADF810004FF01800CF
:101850008DF813004FF003008DF8120004A95248D0
:1018600008F0B9FC4FF00400ADF810008DF813003B
:1018700004A94F4808F0AFFC4FF4165000904FF009
:101880000000ADF80400ADF80600ADF80800ADF8B2
:101890000C004FF00C00ADF80A006946454809F00D
:1018A00045F8012240F22551424809F0D4F80121BF
:1018B000404809F0C3F840213E4809F0A7F905B0B7
:1018C00000BD70B504460D46E1B2334809F034F965
:1018D00000BF3148008810F0800FFAD0204670BD5C
:1018E000F0B503460D4616464FF0000729460A2E6E
:1018F00003D0384608702846F0BD43B94FF0300099
:1019000001F8010B4FF0000008702846F4E7002BA7
:1019100005DA4FF02D0001F8010BC3F1000342F28C
:1019200010720FE093FBF2F404B93FB104F1300000
:1019300001F8010B04FB12334FF001074FF00A00CE
:1019400092FBF0F2002AEDDC4FF000000870284610
:10195000D2E70FB470B586B006460CA8019092E0AD
:101960004021304609F052F90B9800785C2832D1BA
:101970000B98401C0B9000786E281DD0722824D143
:101980000D21304609F0D8F80B9800F101000B90BA
:1019900020E0000000080140003801400044004001
:1019A000000C01400048004000100140004C004085
:1019B00000140140005000400A21304609F0BCF8F4
:1019C0000B9800F101000B9004E00B9800F101006E
:1019D0000B9000BF50E00B980078252845D10B985C
:1019E000401C0B90007864281AD0732837D10198D6
:1019F00010C801900CE02178304609F09DF800BF36
:101A00004021304609F0F6F80028F9D004F101042D
:101A100020780028EFD10B9800F101000B9023E013
:101A2000019820C801900A2202A92846FFF758FF12
:101A300002AC0CE02178304609F07EF800BF40216E
:101A4000304609F0D7F80028F9D004F101042078D5
:101A50000028EFD10B9800F101000B9004E00B98E7
:101A600000F101000B9000BF06E00B9810F8011B7D
:101A70000B90304609F060F800BF4021304609F075
:101A8000B9F80028F9D00B98007800287FF468AFE7
:101A900006B070BC5DF814FB2DE9F04107460D4619
:101AA00016464FF0000411E04021384609F0AEF828
:101AB000295D384609F040F800BF4021384609F05A
:101AC00099F80028F9D004F1010084B2B442EBDBAC
:101AD000BDE8F08170B504460D464FF04001204648
:101AE00009F094F82946204609F026F800BF402165
:101AF000204609F07FF80028F9D070BD10B5FFF737
:101B000044FDFFF78FFDFFF7DDFDFFF736FEFFF722
:101B10008FFEFFF7EBFC10BD08B50121102008F087
:101B200044FE4FF40070ADF800004FF048008DF80F
:101B300003006946354808F04EFB4FF4C070ADF81D
:101B400000004FF010008DF803004FF003008DF8F7
:101B5000020069462D4808F03EFB08BD08B501218A
:101B6000042008F022FE48F20300ADF800004FF018
:101B700010008DF803004FF003008DF80200694655
:101B8000234808F028FB0121214808F0E0FB02214E
:101B90001F4808F0DCFB4FF400411D4808F0D7FB5C
:101BA00008BD10B5FFF7B8FFFFF7D8FF10BD70B53F
:101BB0004FF000044FF48071144808F0CAFB022073
:101BC000FFF70EFA4FF48071104808F0C0FB25466D
:101BD00018E080210D4808F0BCFB4FEA54044FF494
:101BE00000710A4808F093FB012802D144F4000474
:101BF00001E0C4F316048021044808F0A8FB05F1B5
:101C00000100C5B2182DE4DB204670BD0010014074
:101C10000008014008B50121042008F0C6FD4FF47A
:101C20008070ADF800004FF010008DF803004FF009
:101C300003008DF8020069461F4808F0CCFA4FF403
:101C400080711D4808F083FB08BD2DE9F041054671
:101C50000E464FEA45074FF0000423E0204604EB10
:101C6000D0714FEA6101B4EB410105D14FF48071AD
:101C7000114808F06EFB04E04FF480710E4808F044
:101C800066FB16B1012E09D103E06420FFF789F944
:101C900004E04FF49670FFF784F900BF00BF04F131
:101CA000010084B2BC42D9DB4FF48071024808F0D5
:101CB0004EFBBDE8F08100000008014000B587B090
:101CC0000121242008F071FD0121080308F06DFDB9
:101CD0000121084608F069FD4FF02000ADF804002E
:101CE0004FF003008DF806004FF018008DF8070044
:101CF00001A9FB4808F06FFA4FF04000ADF804006E
:101D000001A9F74808F067FA4FF08000ADF8040029
:101D100001A9F34808F05FFA4FF01000ADF8040095
:101D20008DF8070001A9EE4808F055FA1021EC489B
:101D300008F00DFB4FF00000ADF808004FF4827082
:101D4000ADF80A004FF00000ADF80C004FF00200B3
:101D5000ADF80E004FF00100ADF810004FF4007028
:101D6000ADF812004FF00800ADF814004FF000007D
:101D7000ADF816004FF00700ADF8180002A9D948D9
:101D80000AF052FD0121D7480AF008FE07B000BD55
:101D900010B5044600BF0221D2480AF09BFE00287D
:101DA000F9D02146CF480AF03BFE00BF0121CD48C3
:101DB0000AF090FE0028F9D0CA480AF033FEC0B2FB
:101DC00010BD10B54FF000044FF01001C44808F0EA
:101DD000C0FA0520FFF7DCFF00BFFF20FFF7D8FFA8
:101DE000044604F001000128F7D01021BC4808F097
:101DF000AEFA10BD10B51021B94808F0AAFA0620B5
:101E0000FFF7C6FF1021B64808F0A1FA10BD10B5C3
:101E10000446FFF7EFFFFFF7D4FF1021B04808F0AA
:101E200098FA2020FFF7B4FFC4F30740FFF7B0FF94
:101E3000C4F30720FFF7ACFFE0B2FFF7A9FF1021C2
:101E4000A74808F084FAFFF7BCFF10BD10B5FFF7F4
:101E5000D1FF1021A24808F07CFAC720FFF798FFB5
:101E600010219F4808F073FAFFF7ABFF10BD70B563
:101E700005460C461646FFF7BDFF1021984808F0AE
:101E800068FA0220FFF784FFC4F30740FFF780FFE2
:101E9000C4F30720FFF77CFFE0B2FFF779FFB6F548
:101EA000807F01DD4FF4807604E02878FFF770FF33
:101EB00005F101053000A6F101018EB2F5D1102126
:101EC000874808F044FAFFF77CFF70BD2DE9F05F0A
:101ED00007460E4614464FF00008C146C246454626
:101EE000AB4606F0FF0ACAF10000C5B220464FEA31
:101EF000E47104EB1161C1F307284FEAE47104EBCC
:101F000011614FEA2121A4EB012101F0FF09BAF18F
:101F1000000F20D1B8F1000F05D1224631463846D6
:101F2000FFF7A5FF68E009E04FF4807231463846BC
:101F3000FFF79DFF06F5807607F580775FEA0800DA
:101F4000A8F1010101F0FF08EED14A4631463846BA
:101F5000FFF78DFF50E0B8F1000F18D1A94510DD53
:101F6000A9EB050000F0FF0B2A4631463846FFF783
:101F70007EFF2E442F445A4631463846FFF777FFFE
:101F80003AE0224631463846FFF771FF34E0A4EBD1
:101F9000050084B220464FEAE47104EB1161C1F3FD
:101FA00007284FEAE47104EB11614FEA2121A4EB09
:101FB000012101F0FF092A4631463846FFF757FF55
:101FC0002E442F4409E04FF4807231463846FFF723
:101FD0004EFF06F5807607F580775FEA0800A8F1E6
:101FE000010101F0FF08EED1B9F1000F04D04A461B
:101FF00031463846FFF73BFFBDE8F09F70B5054618
:102000000C4616464FF01001354808F0A2F903209F
:10201000FFF7BEFEC4F30740FFF7BAFEC4F3072084
:10202000FFF7B6FEE0B2FFF7B3FE05E0FF20FFF7D3
:10203000AFFE287005F101053000A6F101018EB256
:10204000F4D11021264808F082F970BD2DE9F04145
:102050004FF000042546264627464FF01001204841
:1020600008F077F99F20FFF793FEFF20FFF790FE1F
:1020700005464FF0FF00FFF78BFE06464FF0FF00CE
:10208000FFF786FE07464FF01001154808F05FF98C
:102090004FEA054040EA062040EA07042046BDE832
:1020A000F08110B54FF000044FF010010C4808F01B
:1020B00050F9AB20FFF76CFEFF20FFF769FEFF2011
:1020C000FFF766FEFF20FFF763FEFF20FFF760FECD
:1020D00004464FF01001024808F039F9204610BDBF
:1020E000000801400030014010B504464FF01001D7
:1020F000244808F02EF90320FFF74AFEC4F30740F6
:10210000FFF746FEC4F30720FFF742FEE0B2FFF7F9
:102110003FFE10BD10B5FF20FFF73AFE10BD10B511
:10212000044600BF022118480AF0D4FC0028F9D068
:10213000214615480AF074FC00BF012112480AF03C
:10214000C9FC0028F9D010480AF06CFC10BD10B58D
:1021500010210C4808F0FDF8B920FFF719FE1021F6
:10216000084808F0F4F810BD10B51021054808F033
:10217000F0F8AB20FFF70CFE1021024808F0E7F85A
:1021800010BD00000008014000300140F0B50446D9
:102190000D464FF0000014E0B0FBF3F603FB16060B
:1021A000965D275CA7EB060606F580714FEAE1769F
:1021B00001EB16664FEA2626A1EB0626265400F10F
:1021C0000100A842E8D3F0BDF0B504460D464FF03B
:1021D000000012E0B0FBF3F603FB1606965D275CE9
:1021E00006EB07014FEAE17601EB16664FEA262679
:1021F000A1EB0626265400F10100A842EAD3F0BD67
:1022000010B503460C464FF000010A4605E0985C05
:10221000084481B202F1010082B2A242F7DBC9B2E6
:10222000084610BD2DE9F04105460E4617461C46EE
:10223000DDF818804FF40071FC480AF086FF4FF07B
:102240006900FB49087004F10B0048704FF0690009
:1022500088700846C670F7490A684260898801811B
:1022600098F80000F249887298F80100C872084690
:1022700005732246394600F10E000AF04DFFEC4886
:102280004178C01CFFF7BCFFE949497801F103011F
:10229000E74A50544FF016011046407800F1040010
:1022A0001154BDE8F0812DE9F04105460E46174670
:1022B0001C46DDF818804FF40071DC480AF045FF39
:1022C0004FF06900DA49087004F10B0048704FF0D4
:1022D000690088700846C670D6490A6842608988D5
:1022E000018198F80000D249887298F80100C872FC
:1022F000084605734FF00000487322463946CC4823
:1023000000F10E000AF008FFC9484178C01CFFF731
:1023100077FFC749497801F10301C54A50544FF08E
:1023200016011046407800F1040011544FF00603E6
:10233000C04A02F1060204F10201BD4800F10D009D
:10234000FFF742FFBDE8F08108B5BB4800780728D9
:1023500000D008BD4FF08000B8490870B848B0F808
:102360000300A0F5FA604FF00A0190FBF1F201FBC7
:102370001201B348B0F80300A0F5FA604FF00A026A
:1023800090FBF2F041EA0010AC494870AC4840794B
:10239000114690FBF1F201FB1200A94949794FF077
:1023A0000A0291FBF2F140EA0110A4498870A448A6
:1023B0008079114690FBF1F201FB1200A049897966
:1023C0004FF00A0291FBF2F140EA01109B49C870FC
:1023D0009B480078114690FBF1F201FB12009849EE
:1023E00009784FF00A0291FBF2F140EA011093499B
:1023F000087193484078114690FBF1F201FB1200FE
:102400008F4949784FF00A0291FBF2F140EA01103E
:102410008A4948718A488078114690FBF1F201FBA5
:102420001200874989784FF00A0291FBF2F140EAE5
:10243000011082498871834800684FEA1060C871B2
:10244000804800684FEA104008727E4800684FEAF2
:10245000102048727B48006888727B4800684FEA09
:102460001060C872784800684FEA104008737648D8
:1024700000684FEA102048737348006888737348F7
:1024800000684FEA1060C873704800684FEA104057
:1024900008746E4800684FEA102048746B48006862
:1024A00088746B4800684FEA1060C8746848006818
:1024B0004FEA10400875664800684FEA10204875DA
:1024C00063480068887563480078C875624800787A
:1024D00008766248007848764FF000008876C87623
:1024E000087748778877C8775D4908704FF0010012
:1024F000487008464FF02103504A4FF09101009078
:102500004FF08A00FFF7CFFE64210520FEF795FA11
:102510004848808AC0EB001080004FF47A7200FBBC
:1025200002F10820FEF789FA00BF12E738B5054628
:102530000C464248057044704FF00000484908704E
:102540004FF00100487008464FF002033B4A4FF03D
:10255000910100904FF08900FFF7A5FE642105204E
:10256000FEF76BFA38BD08B53248807933490870F8
:102570003048C07948702F48007A88702D48407ADA
:10258000C8702C48807A08712A48C07A48714FF088
:102590000000334908704FF00100487008464FF0C2
:1025A0000603264A4FF0910100904FF08300FFF799
:1025B0007AFE64210520FEF740FA1E48407BC0EBFE
:1025C000001080004FF47A7200FB02F10720FEF742
:1025D00034FA08BD10B502460B464FF0000108E082
:1025E000505C5C5CA04201D0012010BD01F10100F3
:1025F000C1B20629F4DB0020F7E72DE9FF471948AF
:102600000078692805D018A11D48FFF7A2F9BDE898
:10261000FF8714484078001D1249085C16283DD0F9
:1026200018A11748FFF795F9F1E700005A3200208A
:102630005A340020043900200F0100205A380020AD
:10264000FA310020083200200C3200201032002025
:10265000143200201E3200201F32002020320020C1
:10266000350200205A36002052656365697665643C
:102670002048656164204572726F722E0D0A000059
:1026800000380140526563656976656420456E6473
:10269000204572726F722E0D0A000000F349F44853
:1026A000FFF798FF20B1F3A1F948FFF752F9AEE721
:1026B000EE48001F007B212813D1EC48001F417811
:1026C000C01CFFF79DFDE949091F4978C91CE74A6D
:1026D000121F515C884229D0EEA1ED48FFF739F96D
:1026E00095E7E248001F007B282813D1DF48001F30
:1026F0004178C01CFFF784FDDC49091F4978C91CDB
:10270000DA4A121F515C884210D0E2A1E048FFF77C
:1027100020F97CE7D548001F4078A0F10A01062384
:10272000D34A921DD1480930FFF730FDCF48001F32
:10273000C078DE490870CD48001F00794870052038
:10274000FEF7EDF94FF00000D9490870D94908703B
:10275000C648A0F10400007B2E2870D00CDCA0F14C
:1027600021000D283CD2DFE800F01E3C3B3B6BF91A
:10277000F7F6F5F4F3F2F10082287DD00ADCA0F13F
:102780002F000528EED2DFE810F074034D05760522
:102790009205D905832870D089286FD08A286ED0F9
:1027A0008C281DD1FDE34FF08000C3490870B0486C
:1027B000407B48704FF00000BC4908704FF00100AA
:1027C000487008464FF00203BB4A4FF09101009059
:1027D0004FF02100FFF767FD64210520FEF72DF97A
:1027E000BBE233220021A248FFF708FC0020FFF7DC
:1027F0000EFB9E48001F807B9D49487333220021B9
:102800009B48FFF763FB4FF08000AB4908704FF027
:1028100000004870A54908704FF001004870084654
:102820004FF00203A44A4FF0910100904FF02200B4
:10283000FFF739FD64210520FEF7FFF8D0E7FDE33F
:102840004FF080009C4908709C48B0F80300A0F548
:10285000FA604FF00A0190FBF1F201FB1201974878
:10286000B0F80300A0F5FA604FF00A0290FBF2F016
:1028700041EA0010904903E0FEE3FEE3FEE3FEE3DD
:1028800048708E484079114690FBF1F201FB12002E
:102890008A4949794FF00A0291FBF2F140EA0110AE
:1028A0008549887085488079114690FBF1F201FBDB
:1028B0001200824989794FF00A0291FBF2F140EA55
:1028C00001107D49C8707D480078114690FBF1F2F7
:1028D00001FB1200794909784FF00A0291FBF2F1ED
:1028E00040EA01107449087174484078114690FB21
:1028F000F1F201FB1200714949784FF00A0291FB95
:10290000F2F140EA01106C4948716C488078114638
:1029100090FBF1F201FB1200684989784FF00A023E
:1029200091FBF2F140EA0110634988715F484FF072
:1029300007030A464FF0910100904FF02500FFF782
:10294000B2FC64210520FEF778F849E784E365E3EB
:102950000BE303E228E1D9E0B2E0FFE74348001FC0
:10296000807B00F00F004149A1F10401897B4FEA0F
:10297000211101EB810100EB41053C48A0F104006D
:10298000C07B00F00F003949A1F10401C97B4FEA77
:10299000211101EB810100EB4100C6B23348A0F1E7
:1029A0000400007C00F00F003049A1F10401097C13
:1029B0004FEA211101EB810100EB4100C7B22B4826
:1029C000A0F10400407C00F00F002849A1F10401AF
:1029D000497C4FEA211101EB810100EB410000F03D
:1029E000FF082248A0F10400807C00F00F001F497E
:1029F000A1F10401897C4FEA211101EB810100EB77
:102A0000410000F0FF091948A0F10400C07C00F06B
:102A10000F001649A1F10401C97C4FEA211101EB15
:102A2000810100EB410000F0FF0A43463A4631467F
:102A300005F5FA60CDE9009A06F033FA4FF0800010
:102A40001D4908704FF00000487018484FF002030D
:102A50000A464FF0910100904FF02600FFF723FC4B
:102A600064210520FDF7E9FFBAE600005E3600208C
:102A700004390020526563656976656420416464A9
:102A800072657373204572726F722E0D0A0000001A
:102A9000003801405265636569766564204352439E
:102AA000204572726F722E0D0A0000003502002060
:102AB00034020020380200205A380020FA31002069
:102AC0004FF08000FE490870FE4880794870FD484C
:102AD000C0798870FB48007AC870FA48407A08715B
:102AE000F848807A4871F748C07A8871F6484FF004
:102AF00007030A464FF0910100904FF02700FFF7BF
:102B000091FB64210520FDF798FF69E6332200213F
:102B1000EC48FFF773FA0020FFF779F9EB48807B68
:102B2000E8498871E948C17BE648C171E748017C02
:102B3000E4480172E548417CE2484172E348817C07
:102B4000E0488172E148C17CDE48C1723322002135
:102B5000FFF7BCF9DB48C07ADA49897AD94A527A58
:102B6000D84B1B7ACDE90032CDE90210D548C379A4
:102B70008279D7A1DE48FEF7ECFE4FF08000D04905
:102B800008704FF000004870CF484FF002030A462B
:102B90004FF0910100904FF02800FFF743FB6421B4
:102BA0000520FDF74AFFF7E34FF08000C4490870A5
:102BB000D048B0F80300A0F5FA604FF00A0190FB8E
:102BC000F1F201FB1201CB48B0F80300A0F5FA6066
:102BD0004FF00A0290FBF2F041EA0010B849487049
:102BE000C4484079114690FBF1F201FB1200C14943
:102BF00049794FF00A0291FBF2F140EA0110B04925
:102C00008870BC488079114690FBF1F201FB1200FC
:102C1000B84989794FF00A0291FBF2F140EA0110BC
:102C2000A749C870B3480078114690FBF1F201FB48
:102C30001200B04909784FF00A0291FBF2F140EA24
:102C400001109F490871AB484078114690FBF1F2A2
:102C500001FB1200A74949784FF00A0291FBF2F1FB
:102C600040EA011096494871A2488078114690FBCD
:102C7000F1F201FB12009F4989784FF00A0291FBA3
:102C8000F2F140EA01108E4988719B480068C871D2
:102C9000994800684FEA10200872974800684FEA88
:102CA00010404872944800684FEA10608872934858
:102CB0000068C872914800684FEA102008738F4876
:102CC00000684FEA104048738C4800684FEA106073
:102CD00088738B480068C873894800684FEA1020E1
:102CE0000874874800684FEA1040487484480068B8
:102CF0004FEA1060887483480068C874814800688F
:102D00004FEA102008757F4800684FEA1040487568
:102D10007C4800684FEA106088757B480078C87569
:102D20007A48007808767A48007848764FF00000B4
:102D30008876C876087748778877C87762484FF0F2
:102D400020030A464FF0910100904FF02900FFF751
:102D5000AAFA64210520FDF770FE1DE35B48807B25
:102D6000A0F5FA604FF00A0190FBF1F201FB1201AD
:102D70005648807BA0F5FA604FF00A0290FBF2F013
:102D800041EA0010634908705048C07B114690FB2F
:102D9000F1F201FB12004D49C97B4FF00A0291FB91
:102DA000F2F140EA01105C4908704848007C114685
:102DB00090FBF1F201FB12004449097C4FF00A023A
:102DC00091FBF2F140EA0110544908703F48407C01
:102DD000A0F5FA60114690FBF1F201FB12013B48AD
:102DE000407CA0F5FA604FF00A0290FBF2F041EA55
:102DF00000104B4908703548807C114690FBF1F279
:102E000001FB12003149897C4FF00A0291FBF2F17B
:102E100040EA0110434908702C48C07C114690FBE1
:102E2000F1F201FB12002949C97C4FF00A0291FB23
:102E3000F2F140EA01103C4908704FF0800020494F
:102E400008704FF0000048701F484FF002030A4618
:102E50004FF0910100904FF02A00FFF724FA64210F
:102E60000520FDF7EAFD41F288310920FDF7E5FD77
:102E700092E24FF0800012490870124890F8260044
:102E80004870104890F8270088700E4890F8280085
:102E9000C8700C4890F8290008710A4890F82A0078
:102EA0004871084890F82B008871064890F82C006B
:102EB000C871044890F82D000872024836E00000FE
:102EC0005A38002004390020350200205A360020EC
:102ED00070617373776F72643A25642C25642C25B6
:102EE000642C25642C25642C25640D0A0000000048
:102EF00000380140FA310020083200200C32002056
:102F000010320020143200201E3200201F32002018
:102F1000203200203A0200203B0200203C02002028
:102F20003D0200203E0200203F02002090F82E00CB
:102F30004872FC4890F82F008872FA4890F83000E8
:102F4000C872F84890F831000873F7484FF00D0345
:102F50000A464FF0910100904FF02F00FFF7A3F9C0
:102F600064210520FDF769FD16E233220021ED48BA
:102F7000FFF744F80020FEF74AFFEC48807BE94960
:102F800081F82600E948C07B81F82700E748007CEB
:102F900081F82800E548407C81F82900E348807CDE
:102FA00000E0F8E181F82A00E048C07C81F82B00BD
:102FB000DE48007D81F82C00DC48407D81F82D0042
:102FC000DA48807D81F82E00D848C17DD54880F848
:102FD0002F10D648007ED34981F83000D348417E77
:102FE000D04880F8311033220021FEF76FFF4FF0F8
:102FF0008000CF4908704FF000004870CA484FF079
:1030000002030A464FF0910100904FF02B00FFF7AA
:103010004AF964210520FDF710FDBDE14FF0800065
:10302000C3490870BF48808A4FEA10204870BD48E5
:10303000808A8870BC484FF0030300E03FE00A46F6
:103040004FF0910100904FF02C00FFF72CF9642114
:103050000520FDF7F2FC9FE133220021B148FEF785
:10306000CDFF0020FEF7D3FEB048C07BAF49897B7F
:1030700040EA0120AB4903E089E189E189E189E186
:1030800088824FF033024FF00001A648FEF71EFF82
:103090004FF08000A64908704FF000004870A24829
:1030A0004FF002030A464FF0910100904FF02D00BF
:1030B000FFF7F9F864210520FDF7BFFC6CE14FF044
:1030C00080009B4908709B48407B48709948007B72
:1030D0008870944890F82700C87097480078087165
:1030E0004FF000048EE004EB04109249084400F114
:1030F00001004FF0000101EB4401415C04EBC4000E
:1031000000F105008A4A115404EB0410894908446F
:1031100000F101004FF0010101EB4401415C04EBBF
:10312000C40000F10600115404EB04108149084466
:1031300000F103004FF0000101EB4401415C04EB9E
:10314000C40000F10700115404EB0410794908444D
:1031500000F103004FF0010101EB4401415C04EB7D
:10316000C40000F10800115404EB04107149084434
:1031700000F105004FF0000101EB4401405CC1B2D9
:1031800004EBC40000F10900115404EB0410694978
:10319000084400F105004FF0010101EB4401405CDF
:1031A000C1B204EBC40000F10A00115404EB041096
:1031B0006049084400F107004FF0000101EB4401B1
:1031C000415C04EBC40000F10B00115404EB04104B
:1031D0005849084400F107004FF0010101EB440198
:1031E000415C04EBC40000F10C00115404EB04102A
:1031F0005049095C04EBC40000F10D00115404F1C6
:103200000100C4B20A2CFFF66EAF47485F23484A5C
:10321000912100902E20FFF746F864210520FDF74C
:103220000CFCB9E0332200213E48FEF7E7FE002007
:10323000FEF7EDFD3D48807B3A4981F828003322B6
:1032400000213848FEF742FE4FF0800038490870F0
:103250004FF00000487034484FF002030A464FF028
:10326000910100904FF03000FFF71DF86421052018
:10327000FDF7E3FB90E02D48807B2A4981F826008A
:103280004FF080002A4908704FF00000487026482F
:103290004FF002030A464FF0910100904FF03100C9
:1032A000FFF701F864210520FDF7C7FB74E0332226
:1032B00000211C48FEF7A2FE0020FEF7A8FD1B48D7
:1032C000807B184981F82D001848C07B81F82E00BA
:1032D0001648017C134880F82F101448407C11498F
:1032E00081F830001148817C0E4880F8311033227B
:1032F0000021FEF7EBFD4FF080000D4908704FF004
:103300000000487008484FF002030A464FF0910150
:1033100000904FF03200FEF7C6FF64210520FDF754
:103320008CFB39E004390020350200205A36002099
:103330005A380020983900201A3200203322002108
:10334000FA48FEF75BFE0020FEF761FDF848807B3F
:10335000F64981F8320033220021F448FEF7B6FD29
:103360004FF08000F34908704FF000004870F248B9
:103370004FF002030A464FF0910100904FF03300E6
:10338000FEF791FF64210520FDF757FB04E003E001
:1033900002E001E000E000BF00BF00BFFFF737B967
:1033A00010B5044604E014F8011BE448FEF792FB54
:1033B00020780028F7D110BD10B5A0B04FF08001E3
:1033C000684609F0C2FEDE480078B8B9DD484078AA
:1033D00000F10500C4B22246DBA1DF48FEF7B9FACE
:1033E0002246D9A168460AF09FF96846FFF7D8FF40
:1033F0004FF47A710520FDF720FB13E0D0480078E8
:1034000001280FD1D5A1D448FEF7A3FACD484078C2
:10341000421DCC49C948FEF73FFB4FF4FA61052035
:10342000FDF70BFB20B010BD2DE9F04705460E4619
:1034300017469846DDF820904FF0010A286800787A
:1034400010B90020BDE8F0874FF000040DE02868B7
:10345000005DB84200D10BE0A9F10100A04201D10A
:103460000020EFE704F1010084B23088A042EEDCD6
:1034700000BF2868005DB84201D00020E2E7224684
:103480004046296809F048FE4FF0000008F80400A3
:1034900004F10100296808442860318804F1010022
:1034A000A1EB000030805046CCE730B504460B4617
:1034B00021464FF0000201E001F1010108782C28BB
:1034C00002D008780028F7D1087808B9002030BD6C
:1034D00001F101010FE008782B2805D00878302889
:1034E00007DB0878392804DC0878985402F10100D9
:1034F000C2B201F1010108782C2802D00878002816
:10350000E9D14FF000009854087808B90020DEE7B0
:1035100001F1010101E001F1010108782C2802D03C
:1035200008780028F7D1087808B90020CFE701F122
:1035300001014FF000020AE00878302805DB087826
:10354000392802DC02F10100C2B201F10101087860
:103550000A2802D008780028EED1087808B900209F
:10356000B5E701F101014FF000020EE008780D28E7
:1035700009D008780A2806D00D7803F12000855478
:1035800002F10100C2B201F1010108780028EDD179
:1035900001209CE72DE9F04190B006464FF000076E
:1035A00001E006F1010630780D28FAD030780A28BB
:1035B000F7D0AFF638716848FEF7CBF93146664868
:1035C000FEF7C7F9AFF64C716348FEF7C2F968A180
:1035D000304609F0C6FD58B166A15F48FEF7B9F95B
:1035E00041F288310020FDF728FA4FF00107BDE3D2
:1035F0006AA1304609F0B5FD70B16AA15648FEF7E0
:10360000A8F90B20FDF78BFA41F288310020FDF775
:1036100014FA4FF00107A9E366A1304609F0A1FDB5
:10362000A0B166A14C48FEF794F94FF002006A4938
:1036300088704FF000004870FDF771FA4FF47A710E
:103640000120FDF7FAF94FF001078FE363A130463F
:1036500009F087FD002867D04FF00000624908702C
:10366000624908704FF007005B4908704FF0040092
:10367000FDF755FA2D4880792E4908702B48C079FE
:1036800048702A48007A88702848407AC8702748CD
:10369000807A08712548C07A48714FF000002649A9
:1036A00008704FF0010048702048C07A1F49897A9D
:1036B0001E4A527A1D4B1B7ACDE90032CDE9021029
:1036C0001A48C3798279AFF2F8712348FEF741F9BD
:1036D00019480623174A912100908220FEF7A2FD87
:1036E00064210520FDF7A9F94FF4FA710620FDF7D2
:1036F000A4F90E48808AC0EB001080004FF47A7263
:1037000000FB02F10820FDF798F90848407BC0EB68
:10371000001080004FF47A7200FB02F10720FDF7E1
:103720008CF94FF0010721E362E00000043900202A
:103730005A3600205A38002035020020004400404C
:10374000340200205A34002041542B434950534541
:103750004E443D25640D0A000038014073656E64D7
:10376000696E672074637020646174612E0D0A00B5
:10377000524459002B2B4D4F44554C453A41542D42
:10378000436F6D6D616E6420496E74657270726511
:103790007465722072656164790D0A002B4950527C
:1037A0003A0000002B2B4D4F44554C453A4950529E
:1037B0000D0A00002B4350494E3A00002B2B4D4F71
:1037C00044554C453A53494D2043415244205245BB
:1037D0004144590D0A0000000F010020434F4E4E96
:1037E000454354204F4B0000F431002038020020A4
:1037F000F6A1304609F0B5FCC0B1F8480078401C8D
:10380000C0B2F64908703C280DDD4FF0000008708A
:10381000F34908704FF00500FDF781F94FF47A7114
:103820000420FDF70AF94FF001079FE2EDA13046B1
:1038300009F097FC10B14FF0010797E2EDA1304677
:1038400009F08FFC60B14FF00000EC490870EC49C2
:1038500008704FF00500FDF762F94FF0010785E2AF
:10386000E8A1304609F07DFC002838D0E5A13046BB
:1038700009F077FC00F105044FF000000F900546B9
:1038800080460CE02078392807DC2078302804DBDB
:1038900020780FA9485505F1010504F101042078AD
:1038A0003A2802D020780028ECD104F101044FF02E
:1038B00000000FA948550FA809F092FC80464FF070
:1038C000000505E014F8010BD049485505F1010544
:1038D0004545F7DBFEF791FE4FF0010746E2CCA12C
:1038E000304609F03EFC88B14FF00000BB4908703B
:1038F000BB4908704FF00500FDF711F94FF47A71DC
:103900000120FDF79AF84FF001072FE2C2A13046DF
:1039100009F027FC30B1C2A1C648FEF71AF84FF0F3
:10392000010723E2C4A1304609F01BFC70B14FF03F
:103930000100B24908704FF00500FDF7F0F83221A0
:103940000520FDF77AF84FF001070FE2BBA13046E2
:1039500009F007FC002842D0B8A1304609F001FC6C
:1039600000F106044FF000000F904FF0380101A85D
:1039700009F0EBFB4FF00005B2A1AE48FDF7E9FFFF
:1039800001E004F1010420782C2802D020780028DE
:10399000F7D120782C2821D10DE02078392808DCB7
:1039A0002078302805DB20780FA9485505F1010063
:1039B000C5B204F1010420780028EED10FA94855C2
:1039C0000FA809F00DFC80464246A5A101A809F008
:1039D000ABFE01A8FFF7E4FC4FF00107C6E1A3A18D
:1039E000304609F0BEFB08B3A0A1304609F0B9FB90
:1039F0000446A0A18F48FDF7ACFFAFF21821204686
:103A000009F0AFFB78B1A2A1204609F0AAFB38B1BA
:103A1000A021A04809F099FB9E492046FFF745FDEB
:103A20004FF0010701E04FF000079FE19AA13046F7
:103A300009F097FB80B398A1304609F092FB00F1A2
:103A400007044FF000000F90054680460DE02078F7
:103A5000392808DC2078302805DB20780FA9485564
:103A600005F10100C5B204F1010420780028EED16F
:103A70000FA948550FA809F0B3FB8046B8F1010F14
:103A800008D157480078012805D14FF00200544969
:103A9000087000E000BF69E1FFE781A1304609F04E
:103AA00060FB30B180A16348FDF753FF4FF0010781
:103AB0005CE182A1304609F054FB10B14FF00107E0
:103AC00054E12E21304609F062FB30B17EA1594805
:103AD000FDF73FFF4FF0010748E1AFF2F821304614
:103AE00009F03FFB00286ED03D4840780E286BD08F
:103AF0003B48407820B94FF001003949487027E130
:103B000037484078012804D14FF00200344948700A
:103B10001EE133484078022804D14FF003003049B9
:103B2000487015E12E484078032804D14FF0040076
:103B30002B4948700CE12A484078042804D14FF002
:103B400005002749487003E125484078052804D13D
:103B50004FF0060022494870FAE0214840780628D4
:103B600004D14FF007001E494870F1E01C4840782E
:103B7000072804D14FF0080019494870E8E01848B8
:103B80004078082804D14FF0090015494870DFE05B
:103B900013484078092804D14FF00A0010494870B2
:103BA000D6E00F4840780A2804D14FF00B000C49AA
:103BB0004870CDE00A4840780B2806D14FF00C0041
:103BC00007494870C4E0C6E09FE087E0434F4E4E8F
:103BD000454354204641494C000000003902002072
:103BE0000F010020414C5245415920434F4E4E4554
:103BF0004354000053454E44204F4B0034020020F4
:103C0000380200202B4950442C0000005A36002076
:103C1000434C4F53454400002B435245473A000064
:103C20002B2B4D4F44554C453A20435245470D0AE6
:103C300000000000003801403E0000002B434D54BE
:103C4000493A00002B2B4D4F44554C453A434D54B7
:103C500049284D534720474554290D0A00000000CC
:103C600041542B434D47523D25640D002B434D4796
:103C7000523A00002B2B4D4F44554C453A20434DB2
:103C80004752284D53472052454144290D0A000010
:103C900023000000120100202B43474154543A00F6
:103CA0002B43475245473A002B2B4D4F44554C452B
:103CB0003A2B43475245470D0A000000254950431F
:103CC0004C4F53453A0000002D2D47657420416349
:103CD000746976652049702E0D0A0000BA48407854
:103CE0000C2804D14FF00D00B749487030E0B648B9
:103CF00040780D2804D14FF00E00B349487027E0FA
:103D00004FF00000B049487022E0AF480078072823
:103D10001ED0AD48007820B94FF00100AA490870C4
:103D200016E0A9480078022804D14FF00300A64904
:103D300008700DE0A4480078032804D14FF0040077
:103D4000A149087004E0A0480078042800D000BF12
:103D50004FF001070AE09DA1304609F002FA28B1B0
:103D60009CA1A148FDF7F5FD4FF00107384610B0C2
:103D7000BDE8F08170B505460C464FF400719B48D4
:103D800009F0E3F9B4F5007F08DA2246294697489E
:103D900009F0C2F94FF00000944908559348FFF725
:103DA000F9FB70BD30B58FB004460D464FF03C01B5
:103DB000684609F0CAF90CB1207808B90FB030BDD7
:103DC00022468BA1684609F0AFFC6846FFF7E8FA87
:103DD00000BFF3E730B5B9B005468948389009F01F
:103DE000DFF980B237904FF0000036904FF00104B9
:103DF000389800F101003890BDF8DC00A0F1010016
:103E000080B237904FF0040036AB4FF0230237A951
:103E1000009038A8FFF708FB00286DD0032279A195
:103E200036A809F0CEF9002866D14FF020012EA85F
:103E300009F08BF94FF0200126A809F086F94FF020
:103E40000000249025904FF08C0101A809F07DF925
:103E500020202EAB232237A9009038A8FFF7E4FAE0
:103E600000283AD0202026AB232237A9009038A87A
:103E7000FFF7DAFA00282BD0052024AB232237A93C
:103E8000009038A8FFF7D0FAE8B15FA101A809F0C7
:103E90008FF940215F4809F058F920215D484030F2
:103EA00009F053F92EA95B4809F082F926A959486F
:103EB000403009F07DF958A0FFF772FA4FF000008A
:103EC000414908700DE058A101A809F071F908E016
:103ED00059A101A809F06CF903E05BA101A809F060
:103EE00067F940214648403009F02FF901A94448BC
:103EF000403009F05DF900BF204639B030BD08B54B
:103F00000121082006F051FC4FF0C000ADF8000080
:103F10004FF010008DF803004FF003008DF8020001
:103F200069464D4806F057F908BD10B540214A488A
:103F300006F00DFA4948FDF772F88021464806F070
:103F400006FA4CF25030FDF76AF88021424806F03C
:103F500000FA4248FDF763F880213F4806F0F7F980
:103F600010BD10B580213C4806F0F3F93C48FDF740
:103F700056F88021384806F0EAF94021364806F024
:103F8000E8F93648FDF74BF810BD10B53548007814
:103F900090B13448B0F80110C01CFFF7EBFE314877
:103FA000B0F80110C01C09F0D0F84FF000002D4906
:103FB000A1F80100087005E04FF000002949A1F8C0
:103FC0000100087010BD00000F0100204552524F43
:103FD000520000002B2B4D4F44554C453A45525250
:103FE0004F520D0A00000000003801405A320020F4
:103FF00041542B434D47533D222573220D0A0000A7
:104000003201002038303100534554204950204FB0
:104010004B000000D20100204154254950434C4F31
:1040200053453D310D0A0000434F4D4D414E443341
:10403000204552524F520000434F4D4D414E4432A5
:10404000204552524F520000434F4D4D414E443196
:10405000204552524F520000000C0140A086010042
:10406000F04902008C0000202DE9F04104460D4685
:1040700016461F4600BF4FF05000FE490880FE481C
:10408000058000BF00BF4FF05100088005EB07001E
:10409000A0F10100F849088000BF00BF4FF05200B6
:1040A000F4490880F448048000BF00BF4FF053007B
:1040B000088004EB0600A0F10100EF49088000BF72
:1040C0002946204609F008FB4FF02200E949088004
:1040D000BDE8F08100BF4FF05000E64908804FF086
:1040E0000000E549088000BF00BF4FF05100E149E2
:1040F00008804FF0EF00E049088000BF00BF4FF09C
:104100005200DC4908804FF00000DB49088000BF06
:1041100000BF4FF05300D749088040F23F10D64906
:10412000088000BF704770B505460E4614463146FC
:10413000284609F0D1FA4FF02200CE490880CE4837
:10414000048070BD0146002901DA484270470846E4
:10415000FCE710B500BF4FF05003C64C2380C64BA0
:10416000188000BF00BF4FF0510323804FF0EF03D2
:10417000C14C238000BF00BF4FF05203BD4C2380D1
:10418000BD4B198000BF00BF4FF05303238040F2A6
:104190003F13B94C238000BF00BF4FF02003B54C44
:1041A0002380B54B188000BF00BF4FF02103238050
:1041B000B14B198000BF4FF022032380AE4B1A8011
:1041C00010BD2DE9F05F04460D4616461F46B44269
:1041D00007D1BD4205D1294620460A9AFFF7A3FF21
:1041E0004DE0781BFFF7AEFF8346301BFFF7AAFFB9
:1041F000834522D9BD4205DDAA463D465746A24623
:1042000034465646A94615E0A9EB0500A6EB040185
:1042100000FB01F0A7EB0501B0FBF1F020441FFA11
:1042200080F8494640460A9AFFF77DFF09F10100F0
:104230001FFA80F9B945E7DB21E0B44205DDAA4663
:104240003D465746A24634465646A04615E0A8EBE2
:104250000400A7EB050100FB01F0A6EB0401B0FB95
:10426000F1F028441FFA80F9494640460A9AFFF7C0
:104270005AFF08F101001FFA80F8B045E7DBBDE8FE
:10428000F09F2DE9F0470746884614461D46DDF8A5
:1042900020902B46224641463846FFF7E5FE04FBB8
:1042A00005FA4FF0000604E07348A0F8009006F10C
:1042B00001065645F8D3FFF70DFFBDE8F087F0B5CE
:1042C000059E00BF4FF05007DFF8A8C1ACF80070A2
:1042D000694F388000BF00BF4FF05107ACF8007045
:1042E00000EB0207A7F10107DFF88CC1ACF8007002
:1042F00000BF00BF4FF05207DFF878C1ACF8007084
:104300005D4F398000BF00BF4FF05307ACF800701D
:1043100001EB0307A7F10107DFF85CC1ACF80070FF
:1043200000BF00BF4FF02007DFF848C1ACF80070B5
:10433000514F388000BF00BF4FF02107ACF800702C
:104340004D4F398000BF4FF02207ACF8007002FBE0
:1043500003F54FF0000403E0474F3E8004F10104F1
:10436000AC42F9D300BF4FF05007DFF808C1ACF8FA
:1043700000704FF00007DFF800C1ACF8007000BF1C
:1043800000BF4FF05107DFF8ECC0ACF800704FF001
:10439000EF07DFF8E4C0ACF8007000BF00BF4FF0DB
:1043A0005207DFF8D0C0ACF800704FF00007DFF81C
:1043B000C8C0ACF8007000BF00BF4FF05307DFF873
:1043C000B4C0ACF8007040F23F17DFF8ACC0ACF8F6
:1043D000007000BFF0BD01462648018026480088D5
:1043E000704708B50121080206F0D0F901216820C4
:1043F00006F0DBF94FF010008DF803004FF00300DA
:104400008DF802004FF00100ADF8000069461B482E
:1044100005F0E1FE0121194805F09BFF4FF0030074
:104420008DF802004FF018008DF803004CF2037075
:10443000ADF800006946124805F0CDFE4FF68070D9
:10444000ADF8000069460F4805F0C5FE4FF01000BA
:10445000ADF8000069460A4805F0BDFE4FF02000A7
:10446000ADF800006946064805F0B5FE4FF0800043
:104470000AE000000000046000000660000C01403B
:104480000014014000180140ADF800006946FE48E4
:1044900005F0A1FE4FF40060ADF800006946FA484F
:1044A00005F099FE4FF48050ADF800006946F648DB
:1044B00005F091FE4FF40050ADF800006946F24857
:1044C00005F089FE0121F14805F041FF1021EE4879
:1044D00005F03DFF2021EC4805F039FF8021EA4836
:1044E00005F035FF4FF48051E74805F030FF4FF4F9
:1044F0000051E54805F02DFF0821E34805F029FFAC
:104500004021E14805F023FF08BD00B595B04FF00C
:10451000020000904FF0000001904FF00500029063
:104520004FF000000390049005904FF080500690EB
:104530004FF00000079008904FF0080009904FF0EE
:1045400010000A904FF000000B900C900D900E9010
:104550004FF480500F904FF0000010901190129087
:10456000CDF84CD0CDF850D007A807F021FB0121A1
:10457000002007F09EFC15B000BD10B50121C34816
:1045800005F0E7FE0121C14805F0E1FE00BF4FF054
:104590000000BF490880BF49088000BF00BF4FF03E
:1045A0000100BB4908804FF48070BA49088000BF01
:1045B00000BF4FF00200B64908804FF4E060B549F3
:1045C000088000BF00BF4FF00300B149088041F2EE
:1045D0003000B049088000BF00BF4FF00400AC4974
:1045E00008804FF00000AB49088000BF00BF4FF0CB
:1045F0000800A749088040F20220A649088000BFB1
:1046000000BF4FF00900A24908804FF00000A14907
:10461000088000BF00BF4FF00A009D4908804FF09E
:1046200000009C49088000BF00BF4FF00C00984973
:1046300008804FF001009749088000BF00BF4FF08D
:104640000D00934908804FF000009249088000BF98
:1046500000BF4FF00F008E4908804FF000008D49D9
:10466000088000BF4FF00500FCF7D9FC00BF4FF0F9
:1046700007008749088040F201108649088000BF82
:104680004FF00500FCF7CBFC00BF4FF01000804955
:1046900008804FF486507F49088000BF00BF4FF06C
:1046A00011007B4908804FF007007A49088000BF5D
:1046B00000BF4FF01200764908804FF488707549AA
:1046C000088000BF00BF4FF01300714908804FF40D
:1046D00030607049088000BF00BF4FF029006C496E
:1046E00008804FF000006B49088000BF00BF4FF00A
:1046F0002B006749088044F210006649088000BF1B
:1047000000BF4FF05000624908804FF0000061493F
:10471000088000BF00BF4FF051005D4908804FF096
:10472000EF005C49088000BF00BF4FF052005849BD
:1047300008804FF000005749088000BF00BF4FF0CD
:1047400053005349088040F23F105249088000BF8F
:1047500000BF4FF060004E4908804FF41C504D4997
:10476000088000BF00BF4FF06100494908804FF04A
:1047700001004849088000BF00BF4FF06A0044496B
:1047800008804FF000004349088000BF00BF4FF091
:1047900080003F4908804FF000003E49088000BF7C
:1047A00000BF4FF081003A4908804FF000003949BE
:1047B000088000BF00BF4FF08200354908804FF0ED
:1047C00000003449088000BF00BF4FF0830030492B
:1047D00008804FF000002F49088000BF00BF4FF055
:1047E00084002B4908804FF000002A49088000BF50
:1047F00000BF4FF08500264908804FF00000254992
:10480000088000BF00BF4FF09000214908804FF0A2
:1048100010002049088000BF00BF4FF092001C49E3
:1048200008804FF000001B49088000BF00BF4FF018
:104830009300174908804FF001001649088000BF17
:1048400000BF4FF09500124908804FF4887011495D
:10485000088000BF00BF4FF097000D4908804FF05F
:1048600000000C49088000BF00BF4FF098000849C5
:1048700008804FF000000749088000BF00BF4FF0DC
:1048800007000349088007E000140140000C0140C4
:10489000000004600000066040F27310A049088028
:1048A00000BF10BD2DE9F04704460D4690469946DD
:1048B0004FF001019B4805F04CFD264611E02F46C4
:1048C00008E04FF4784239463046FFF72CFC07F1F8
:1048D000010087B205EB0900B842F2DC06F10100E5
:1048E00086B204EB0800B042E9DCBDE8F08710B501
:1048F00001218C4805F02DFD0021084608F0ECFE52
:104900004FF02200884908804FF0000405E04FF086
:1049100000008349088004F10104B4F5963FF6D302
:1049200010BD10B5FFF75DFDFFF7EFFDFFF725FEAA
:1049300001217C4805F00DFD4FF022007A490880E6
:104940004FF0000405E04FF478407549088004F109
:104950000104B4F5963FF6D310BD2DE9F05F04468F
:104960000E4617469946A046B4F59C7F01DCE02E22
:1049700001DDBDE8F09FA7F12000C7B24FF00005B0
:104980002AE007EB4700694901EB001010F805A089
:104990004FF0000B19E01AF0010F04D04A463146DF
:1049A0002046FFF7C0FB04F1010084B2A4EB08002D
:1049B000102804D1444606F1010086B208E04FEA0F
:1049C0006A0A0BF1010000F0FF0BBBF1080FE2DBFC
:1049D00000BF05F10100C5B2302DD2DB00BFC8E732
:1049E00010B502464FF0000113E01078504B5B5CAD
:1049F00098420BD153784E4C481C205C834205D121
:104A00000B4601EBD370401040B210BD01F1020023
:104A1000C1B2AF29E9D34FF0FF30F6E72DE9FF5FD0
:104A200004460E461746A2463846FFF7D9FF83468E
:104A30000BEBCB004FEAC0404FEA104B4FF00005A4
:104A400028E00BEB05003B4911F800804FF000090E
:104A500019E018F0010F04D031462046039AFFF701
:104A600062FB04F1010084B2A4EB0A00182804D10F
:104A7000544606F1010086B208E04FEA680809F1E1
:104A8000010000F0FF09B9F1080FE2DB00BF05F1FA
:104A90000100C5B2482DD4DBBDE8FF9F2DE9F041F0
:104AA00005460E4614461F4635E02078802819DC5E
:104AB000B5F59A7F04DD4FF0000506F1180086B2C7
:104AC000D82E03DD4FF000000646054622783B460F
:104AD00031462846FFF741FF05F1100085B204F189
:104AE000010418E0B5F5947F04DD4FF0000506F1F0
:104AF000180086B2D82E03DD4FF0000006460546AA
:104B00003B46224631462846FFF788FF05F118004C
:104B100085B204F1020420780028C6D1BDE8F081F6
:104B200000000660000C014000000460400200200C
:104B3000F8DB00081014002010B5044604EB440014
:104B4000F84901EB80008068F74908600846006872
:104B5000804710BDF54908707047704710B518239D
:104B600030221E214020FFF79DFE182340221E21E7
:104B7000E020FFF797FE182330223C214020FFF76A
:104B800091FE182340223C21E020FFF78BFE1823E2
:104B900030225A214020FFF785FE182340225A2157
:104BA000E020FFF77FFE1823302278214020FFF716
:104BB00079FE182340227821E020FFF773FE1823A6
:104BC000302296214020FFF76DFE182320229621E7
:104BD000E020FFF767FE18233022B4215020FFF7B2
:104BE00061FE18233022B421E020FFF75BFED0489D
:104BF0000278D0A1D14808F097FD4FF4FC63CF4A6A
:104C00001E214020FFF74AFFCD4890F82620C9A179
:104C1000CA4808F089FD4FF4FC63C84A3C21402093
:104C2000FFF73CFFC7480278C2A1C44808F07CFDEA
:104C30004FF4FC63C14A5A214020FFF72FFFC248BE
:104C4000427BBCA1BD4808F06FFD4FF4FC63BB4A3A
:104C500078214020FFF722FFBB48027BB5A1B7486F
:104C600008F062FD4FF4FC63B44A96214020FFF740
:104C700015FFB648007838B94FF4FC63B4A2B421EC
:104C80005020FFF70BFF16E0B0480078012807D14D
:104C90004FF4FC63B0A2B4215020FFF7FFFE0AE0FE
:104CA000AA480078022806D14FF4FC63ACA2B421D4
:104CB0005020FFF7F3FEAC4800686421B0FBF1F42C
:104CC0002246AAA19D4808F02FFD4FF4FC639B4AA1
:104CD0001E21E020FFF7E2FEA64800686421B0FB39
:104CE000F1F42246A1A1954808F01EFD4FF4FC63A3
:104CF000924A3C21E020FFF7D1FE9F4800686421E2
:104D0000B0FBF1F4224699A18C4808F00DFD4FF458
:104D1000FC638A4A5A21E020FFF7C0FE974893A11E
:104D20000268864808F000FD4FF4FC63834A78214E
:104D3000E020FFF7B3FE8448407800F08000802830
:104D400004D14FF0E0008E49087056E07E4840786C
:104D500000F04000402804D14FF0E100884908707D
:104D60004BE07948407800F02000202804D14FF033
:104D7000E2008349087040E07348407800F010007A
:104D8000102804D14FF0E3007D49087035E06E48EB
:104D9000407800F00800082804D14FF0E40078497A
:104DA00008702AE06848407800F00400042804D124
:104DB0004FF0E500724908701FE06348407800F04A
:104DC0000200022804D14FF0E6006D49087014E09B
:104DD0005D48407800F00100012804D14FF0E70061
:104DE0006749087009E05848807800F08000802802
:104DF00003D14FF0E800624908705348C07800F0D2
:104E00008000802804D14FF0F1005D49087061E016
:104E10004D48C07800F04000402804D14FF0F10028
:104E20005749087056E04848C07800F02000202814
:104E300004D14FF0F200524908704BE04248C0786C
:104E400000F01000102804D14FF0F3004C49087016
:104E500040E03D48C07800F00800082804D14FF039
:104E6000F4004749087035E03748C07800F0040086
:104E7000042804D14FF0F500414908702AE0324877
:104E8000C07800F00200022804D14FF0F6003C493F
:104E900008701FE02C48C07800F00100012804D100
:104EA0004FF0F7003649087014E02748007900F009
:104EB0008000802804D14FF0F8003149087009E0E3
:104EC0002148007900F04000402803D14FF0F9005C
:104ED0002B4908702A4802782AA1184808F024FCB7
:104EE0004FF4FC63154A9621E020FFF7D7FD2748D1
:104EF000007820B94FF000002549087052E023489F
:104F00000078012804D14FF019002149087049E0C8
:104F10001E48007802283DD14FF04B001C49087014
:104F200040E00000402E0020F03100208C2C0020BA
:104F30001E3200202530336400000000F8380020C5
:104F4000043900201F32002098390020F63100205B
:104F5000B6CFCFDF00000000C1ACCFDF0000000003
:104F6000D4DACFDF0000000008320020253034649E
:104F7000000000000C32002010320020143200200B
:104F8000EC31002025303278000000002032002073
:104F9000ED310020FD480078032803D14FF0640074
:104FA000FB490870FA480278AFF27801F94808F036
:104FB000BBFB4FF4FC63F74AB421E020FFF76EFD22
:104FC00010BD10B541F288310D20FBF736FDF248D7
:104FD0000078F24908704FF00100F1490870EE487E
:104FE000007AF0490870EC480069EF4908604FF01A
:104FF0000100EE4908704FF00000ED490870E748E5
:105000000078FFF7A7FDFFF772FC4FF6E073E9A207
:1050100000211C20FFF742FD4FF6E073EBA21E219A
:105020000020FFF73BFD4FF6E073EBA21E21A0200E
:10503000FFF734FD4FF6E073EAA23C210020FFF7B2
:105040002DFD4FF6E073EAA23C21A020FFF726FDDC
:105050004FF6E073E9A25A210020FFF71FFD4FF63B
:10506000E073E9A25A21A020FFF718FD4FF6E07384
:10507000E8A278210020FFF711FD4FF6E073E8A2C7
:105080007821A020FFF70AFD4FF6E073E7A29621F2
:105090000020FFF703FD4FF6E073E7A29621A02062
:1050A000FFF7FCFC4FF6E073E5A2B4210020FFF708
:1050B000F5FC4FF6E073E4A2B421A020FFF7EEFC6C
:1050C000FFF74CFD10BD10B5B4480078FFF742FD66
:1050D000FFF70DFCDF490878FFF72EFD10BD00B586
:1050E000AE480078FFF736FD00BD0EB50D20FBF78A
:1050F00016FDAA480078FFF72DFDFFF7F8FB4FF6E5
:10510000E073D5A200211E20FFF7C8FC4FF6E07324
:10511000D5A21E210846FFF7C1FC4FF6E073D5A2C9
:105120003C211E20FFF7BAFCD548427BAFF2FC11B0
:10513000684608F0F9FA4FF4FC636A461E2196208F
:10514000FFF7ACFCCE48828ACEA1684608F0ECFAA4
:105150004FF4FC636A463C219620FFF79FFC4FF614
:10516000E073CAA21E214FF48270FFF797FC4FF63E
:10517000E073C6A23C214FF48270FFF78FFC0EBD96
:1051800000B586480078FFF7E5FC00BD10B5834800
:105190000078FFF7DFFC80490878FFF7CDFC10BDF1
:1051A00038B54FF00005AB4800787C4908704FF0E7
:1051B00001007B490870A748007A7A490870A54821
:1051C0000069794908604FF00100784908704FF094
:1051D0000000774908709F48007AAE4908706F4810
:1051E0000078FFF7B7FC0D20FBF799FC6D480078BD
:1051F000A8490978884202DA4FF0080501E04FF02B
:105200000805FFF774FB4FF478400090674800787A
:10521000401EC0EB00104004010C1E234FF4A0728E
:105220000020FFF72EF84FF000040EE05E48006803
:1052300050F82420C4EB041041004FF4FC633220EA
:10524000FFF72CFC04F10100C4B2AC42EEDB38BD28
:1052500000B552480078FFF77DFC00BD10B54F48FF
:105260000078FFF777FC4E4800780C283ED2DFE844
:1052700000F03D060B10151A1F24292E33388649DD
:105280000878FFF759FC31E084490878FFF754FCAF
:105290002CE083490878FFF74FFC27E08149087824
:1052A000FFF74AFC22E080490878FFF745FC1DE043
:1052B0007E490878FFF740FC18E07D490878FFF741
:1052C0003BFC13E07B490878FFF736FC0EE07A4997
:1052D0000878FFF731FC09E078490878FFF72CFCE3
:1052E00004E077490878FFF727FC00BF00BF10BD36
:1052F000F8B54FF0000629480078FFF72BFC2B4843
:10530000007800F101002949087008460078244916
:1053100008702648007823490978884205DD4FF057
:105320000100224908701E49087020490978A1F13E
:1053300001004FEAE07100EB5171C1F3C7011C4A53
:1053400011701A480078092802DA4FF0080601E0C7
:105350004FF00306FFF7CBFA4FF478400090134864
:105360000078451EE81705EB5070C010A5EBC00093
:10537000C0EB00104004010C1E234FF4A07200206B
:10538000FEF77FFF4FF00004AFE000002032002066
:10539000ED310020F8380020082D00208E2C002050
:1053A0008F2C0020902C0020942C0020982C002082
:1053B000992C00205BD6D0D1EBD4B6B3CCC8C8B101
:1053C000C3BFD8D6C6CFB5CDB35D0000CBAECFE45A
:1053D0003A202020B6C80000BDF8CBAE3A202020ED
:1053E00020B6D600B3F6CBAE3A202020B6C80000D7
:1053F000B3F6CBAE3A20202020B6D600BBB7BEB362
:105400003A202020B6C80000BBD8CBAE3A202020DE
:1054100020B6D600D4CBD0D03A202020CCA8000093
:10542000B5E7C1BF3A20202020B6C800D4DACFDFCC
:105430003A202020CCA80000B9CAD5CF3A000000FD
:10544000475052533A000000CBAECEBB3A2020204A
:1054500025000000202D00202D2D2DCFB5CDB3B27D
:10546000E9D1AF2D2D2D0000C9CFB1A8CAB1BCE440
:105470003A000000D0C4CCF8CAB1BCE43A00000045
:1054800004390020253035640000000028B7D629F3
:10549000000000008D2C0020382D0020502D002011
:1054A000682D0020802D0020982D0020B02D002098
:1054B000C82D0020E02D0020F82D0020102E002007
:1054C000282E0020FE480078FE4B1B6803EB40109E
:1054D00050F82420C4EB041041004FF4FC63322048
:1054E000FFF7DCFA04F10100C4B2B442EADBF8BD14
:1054F000F8B54FF00006F4480078FFF72BFBF348AF
:105500000078A0F10100F149087008460078F049E0
:105510000870EE480078002805DCEE480078EB497A
:105520000870EB490870E9490978A1F101004FEAD8
:10553000E07100EB5171C1F3C701E14A1170E3481A
:105540000078092802DA4FF0080601E04FF0030660
:10555000FFF7CDF94FF478400090DC480078451E05
:10556000E81705EB5070C010A5EBC000C0EB0010B1
:105570004004010C1E234FF4A0720020FEF781FEB0
:105580004FF0000412E0CE480078CE4B1B6803EBCE
:10559000401050F82420C4EB041041004FF4FC6389
:1055A0003220FFF77BFA04F10100C4B2B442EADB17
:1055B000F8BD10B5C4480078FFF7CCFAC6490878A2
:1055C000FFF7BAFA10BD7FB54FF00005C348007869
:1055D000BD4908704FF00100BD490870BF48007A0E
:1055E000BC490870BD480069B64908604FF0010029
:1055F000B64908704FF00000B1490870B84908700A
:10560000B1480078FFF7A6FAB2480078B5490978A2
:10561000884202DAAF48057801E0B2480578FFF722
:1056200066F94FF000040BE0AF4850F824204FF427
:10563000FC631E210020FFF731FA04F10100C4B21F
:10564000AC42F1DB4FF6E073A8A23C210020FFF74B
:1056500025FA33220021A648FCF7D0FCA4480078A4
:10566000FF281CD1A2484078FF2818D1A048807894
:10567000FF2814D19E48C078FF2810D19C4800799B
:10568000FF280CD19A484079FF2808D14FF000003C
:105690009749087048708870C870087148719448BC
:1056A000407993490979924AD278914B9B78CDE918
:1056B0000032CDE902108E48437802788DA19448DB
:1056C00008F032F84FF4FC63914A5A210020FFF7AA
:1056D000E5F97FBD00B57C480078FFF73BFA00BDD7
:1056E00070B54FF0000578480078FFF733FA884826
:1056F0007B4991F90010405C00F101008449784A2F
:1057000092F9002088540846754991F90010405CD0
:10571000392806DD4FF030007D49714A92F90020AA
:1057200088546C4800786F490978884202DA6948E1
:10573000057801E06B480578FFF7D9F84FF00004D1
:105740000BE0694850F824204FF4FC631E21002030
:10575000FFF7A4F904F10100C4B2AC42F1DB6049E7
:1057600091F90010002202EB011188B24FF6E073AC
:105770005EA23C21FFF792F94FF4FC63644A5A2180
:105780000020FFF78BF970BD70B54FF000054E4853
:105790000078FFF7DFF95E48514991F90010405C4D
:1057A000A0F101005A494E4A92F900208854084657
:1057B0004B4991F90010405C302806DA4FF039006F
:1057C0005349474A92F90020885442480078454995
:1057D0000978884202DA3F48057801E041480578B7
:1057E000FFF785F84FF000040BE03F4850F8242005
:1057F0004FF4FC631E210020FFF750F904F1010073
:10580000C4B2AC42F1DB364991F90010002202EB40
:10581000011188B24FF6E07334A23C21FFF73EF944
:105820004FF4FC633A4A5A210020FFF737F970BD64
:1058300070B54FF0000529480078234908702748C3
:10584000007A24490870254800691E4908601E48EE
:105850000078FFF77FF92248007800F1010040B29C
:105860001F490870084690F900000B287EDD33229E
:1058700000211F48FCF7C2FB28461949087024483C
:105880004078A0F1300022490978A1F1300101EB04
:10589000810100EB4100164908701D48C078A0F155
:1058A00030001B498978A1F1300101EB810100EB47
:1058B00041000F49487016484079A0F1300029E0B6
:1058C000992C0020942C00208E2C0020982C002055
:1058D0008F2C0020902C0020082D0020382D002037
:1058E000E83100208D2C0020CC2C00205600000038
:1058F000043900202530326425303264253032648A
:1059000025303264253032642530326400000000D6
:10591000DA380020FD490979A1F1300101EB81015C
:1059200000EB4100FA498870F848C079A0F13000D6
:10593000F6498979A1F1300101EB810100EB4100C9
:10594000F349C870F148407AA0F13000EF49097A74
:10595000A1F1300101EB810100EB4100EC4908713C
:10596000EA48C07AA0F13000E84900E019E0897AFD
:10597000A1F1300101EB810100EB4100E4494871E4
:105980002846FCF744FA33220021E148FCF79EFA4E
:10599000E0480078FFF7DEF8DF490878FFF7CCF839
:1059A00070BDDE480078DE490978884202DADB48BB
:1059B000057801E0DA480578FEF799FF4FF000041A
:1059C0000BE0D84850F824204FF4FC631E2100203F
:1059D000FFF764F804F10100C4B2AC42F1DBD24934
:1059E00091F90010002202EB011188B24FF6E0732A
:1059F000AFF208123C21FFF751F84FF4FC63C34AA1
:105A00005A210020FFF74AF800BFC9E770B54FF0F0
:105A10000005C0480078FFF79DF8C3480078A0F162
:105A2000010040B2C0490870084690F90000002803
:105A30000ADA28460870B7480078FFF78BF8B649AD
:105A40000878FFF779F870BDB4480078B449097850
:105A5000884202DAB148057801E0B1480578FEF7DE
:105A600046FF4FF000040BE0AE4850F824204FF4FE
:105A7000FC631E210020FFF711F804F10100C4B2FD
:105A8000AC42F1DBA84991F90010002202EB0111B0
:105A900088B24FF6E073AFF2AC123C21FEF7FEFF86
:105AA0004FF4FC63994A5A210020FEF7F7FF00BF2C
:105AB000C9E77FB54FF000054FF01E01934807F08E
:105AC00044FB9A480078934908704FF001009849C8
:105AD00008709648007A9149087094480069954981
